:100000000EC015C014C013C012C011C010C00FC064
:100010000EC00DC00CC00BC00AC009C008C011241E
:100020001FBECFE5D2E0DEBFCDBF5CD035C3E8CF89
:100030006AE070E01FD320E030E048EA51E605C0F6
:10004000FA013197F1F72F5F3F4F28173907C4F3B3
:100050000895DC0181E090E002C0880F991F6A9545
:10006000E2F7982F682F609520E030E040E553ECF0
:100070000EC088B3892B88BBFA013197F1F788B39A
:10008000862388BBFA013197F1F72F5F3F4F2A177C
:100090003B077CF3089582E087B983E086B9089531
:1000A00080E886B9369A349BFECF60E070E020E0AD
:1000B00030E0369A349BFECF94B185B1582F40E0A2
:1000C000FA01E90FF11D2E0F3F1F6F5F7F4F683060
:1000D000710579F716B883E0359527958A95E1F78C
:1000E000C9010895AF92BF92CF92DF92EF92FF9233
:1000F0000F931F93CF93DF9387E087BB88BB82E08A
:1001000087B983E086B9C0E0D0E00F2EF0E0EF2E93
:10011000F0E0FF2EF0E00F2FF0E01F2FF02D28EA87
:10012000A22E21E6B22E90E5C92E93ECD92E26C040
:10013000B7DF9C0180E090E0F5013197F1F701967F
:100140008A309105C9F7B901882777FD8095982FE6
:1001500072D19B01AC01C801B7019BD07B018C011E
:1001600021960CC0C0E0D0E00F2EF0E0EF2EF0E0C2
:10017000FF2EF0E00F2FF0E01F2FF02DC031D10542
:10018000BCF2C801B70120E030E040E85DE307D2EF
:1001900020E030EC4FE754E4E4D02AEB39E444EAC1
:1001A00050E4FDD120E030E048EC52E4F8D123E304
:1001B00033E948E853E46CD026E636E646EE5FE3E2
:1001C000EED120E030E040E052E463D07B018C01CE
:1001D00020E030E04EE852E4DED11816E4F488B3B3
:1001E000866088BBC801B70120E030E044E952E4F2
:1001F000D2D188237CF020E030E0C09AC60101977C
:10020000F1F7C098C6010197F1F72F5F3F4F2A30F1
:10021000310599F7C098C801B70120E030E042E805
:1002200052E49BD08823E4F488B3836088BBC80180
:10023000B70120E030E048E752E48FD018167CF098
:1002400020E030E0C29AC6010197F1F7C298C601DA
:100250000197F1F72F5F3F4F2A30310599F7C29888
:10026000C801B70120E030E042E852E494D188238D
:100270000CF478CFC801B70120E030E04EE852E43A
:100280006CD018160CF46ECFC198C098C2986ACF83
:100290005058BB27AA270ED044C135D130F03AD1EF
:1002A00020F031F49F3F11F41EF42AC10EF4E095C2
:1002B000E7FB20C1E92F46D180F3BA176207730725
:1002C0008407950718F071F49EF55EC10EF4E09571
:1002D0000B2EBA2FA02D0B01B90190010C01CA0100
:1002E000A0011124FF27591B99F0593F50F4503EAB
:1002F00068F11A16F040A22F232F342F4427585F9D
:10030000F3CF469537952795A795F0405395C9F7B4
:100310007EF41F16BA0B620B730B840BBAF091506C
:10032000A1F0FF0FBB1F661F771F881FC2F70EC00B
:10033000BA0F621F731F841F48F4879577956795DE
:10034000B795F7959E3F08F0B3CF9395880F08F0C7
:100350009927EE0F979587950895A8D008F481E026
:1003600008950CD0DEC0D6D040F0CDD030F021F4CE
:100370005F3F19F0BFC0511108C1C2C0E3D098F36C
:100380009923C9F35523B1F3951B550BBB27AA2716
:1003900062177307840738F09F5F5F4F220F331F88
:1003A000441FAA1FA9F333D00E2E3AF0E0E830D054
:1003B00091505040E695001CCAF729D0FE2F27D057
:1003C000660F771F881FBB1F261737074807AB0725
:1003D000B0E809F0BB0B802DBF01FF2793585F4F9A
:1003E0002AF09E3F510568F085C0CFC05F3FECF317
:1003F000983EDCF3869577956795B795F7959F5F5F
:10040000C9F7880F911D9695879597F90895E1E0B2
:10041000660F771F881FBB1F621773078407BA0711
:1004200020F0621B730B840BBA0BEE1F88F7E0956C
:100430000895E89409C097FB3EF4909580957095D7
:1004400061957F4F8F4F9F4F9923A9F0F92F96E920
:10045000BB279395F695879577956795B795F11195
:10046000F8CFFAF4BB0F11F460FF1BC06F5F7F4F32
:100470008F4F9F4F16C0882311F096E911C0772344
:1004800021F09EE8872F762F05C0662371F096E84D
:10049000862F70E060E02AF09A95660F771F881F1C
:1004A000DAF7880F9695879597F90895990F0008C0
:1004B000550FAA0BE0E8FEEF16161706E807F90736
:1004C000C0F012161306E407F50798F0621B730BD1
:1004D000840B950B39F40A2661F0232B242B252B52
:1004E00021F408950A2609F4A140A6958FEF811DF5
:1004F000811D089597F99F6780E870E060E0089596
:100500009FEF80EC089500240A941616170618062B
:100510000906089500240A94121613061406050607
:100520000895092E0394000C11F4882352F0BB0F98
:1005300040F4BF2B11F460FF04C06F5F7F4F8F4FFB
:100540009F4F089557FD9058440F551F59F05F3F36
:1005500071F04795880F97FB991F61F09F3F79F0E5
:1005600087950895121613061406551FF2CF469567
:10057000F1DF08C0161617061806991FF1CF8695E9
:100580007105610508940895E894BB2766277727CD
:10059000CB0197F908958ADF08F48FEF08950AD008
:1005A000C0CFB1DF28F0B6DF18F0952309F0A2CF55
:1005B000A7CFEBCFC7DFA8F39923D9F35523C9F30E
:1005C000950F50E0551FAA27EE27FF27BB270024D1
:1005D0000894679520F4E20FF31FB41F0A1E220F40
:1005E000331F441FAA1F6695A9F7779530F4F30FC0
:1005F000B41F0A1E121E08F46395330F441FAA1F6E
:10060000221F769599F7879520F4B40F0A1E121EC3
:10061000631F440FAA1F221F331F8695A9F7862F39
:10062000712D602D11249F5750408AF0E1F08823EE
:100630004AF0EE0FFF1FBB1F661F771F881F9150E8
:100640005040A9F79E3F510570F054CF9ECF5F3FB9
:10065000ECF3983EDCF3869577956795B795F7951B
:10066000E7959F5FC1F7FE2B880F911D96958795A3
:1006700097F908955527002480FF02C0060E571FE2
:10068000660F771F6115710521F096958795009784
:0C06900099F7952F802D0895F894FFCF66
:00000001FF
